{
  "_format": "hh-sol-artifact-1",
  "contractName": "CrowdFundDirectMetadata",
  "sourceName": "contracts/CrowdFundDirectMetadata.sol",
  "abi": [
    {
      "anonymous": false,
      "inputs": [
        {
          "indexed": true,
          "internalType": "uint256",
          "name": "id",
          "type": "uint256"
        }
      ],
      "name": "CampaignClosed",
      "type": "event"
    },
    {
      "anonymous": false,
      "inputs": [
        {
          "indexed": true,
          "internalType": "uint256",
          "name": "id",
          "type": "uint256"
        },
        {
          "indexed": true,
          "internalType": "address",
          "name": "owner",
          "type": "address"
        },
        {
          "indexed": false,
          "internalType": "uint256",
          "name": "goal",
          "type": "uint256"
        },
        {
          "indexed": false,
          "internalType": "uint256",
          "name": "deadline",
          "type": "uint256"
        },
        {
          "indexed": false,
          "internalType": "enum CrowdFundDirectMetadata.ContributionType",
          "name": "ctype",
          "type": "uint8"
        },
        {
          "indexed": false,
          "internalType": "address",
          "name": "token",
          "type": "address"
        }
      ],
      "name": "CampaignCreated",
      "type": "event"
    },
    {
      "anonymous": false,
      "inputs": [
        {
          "indexed": true,
          "internalType": "uint256",
          "name": "id",
          "type": "uint256"
        },
        {
          "indexed": true,
          "internalType": "address",
          "name": "from",
          "type": "address"
        },
        {
          "indexed": true,
          "internalType": "address",
          "name": "token",
          "type": "address"
        },
        {
          "indexed": false,
          "internalType": "uint256",
          "name": "amount",
          "type": "uint256"
        }
      ],
      "name": "ContributedERC20",
      "type": "event"
    },
    {
      "anonymous": false,
      "inputs": [
        {
          "indexed": true,
          "internalType": "uint256",
          "name": "id",
          "type": "uint256"
        },
        {
          "indexed": true,
          "internalType": "address",
          "name": "from",
          "type": "address"
        },
        {
          "indexed": false,
          "internalType": "uint256",
          "name": "amount",
          "type": "uint256"
        }
      ],
      "name": "ContributedNative",
      "type": "event"
    },
    {
      "anonymous": false,
      "inputs": [
        {
          "indexed": true,
          "internalType": "uint256",
          "name": "id",
          "type": "uint256"
        },
        {
          "indexed": true,
          "internalType": "address",
          "name": "to",
          "type": "address"
        },
        {
          "indexed": true,
          "internalType": "address",
          "name": "token",
          "type": "address"
        },
        {
          "indexed": false,
          "internalType": "uint256",
          "name": "amount",
          "type": "uint256"
        }
      ],
      "name": "ForwardedERC20",
      "type": "event"
    },
    {
      "anonymous": false,
      "inputs": [
        {
          "indexed": true,
          "internalType": "uint256",
          "name": "id",
          "type": "uint256"
        },
        {
          "indexed": true,
          "internalType": "address",
          "name": "to",
          "type": "address"
        },
        {
          "indexed": false,
          "internalType": "uint256",
          "name": "amount",
          "type": "uint256"
        }
      ],
      "name": "ForwardedNative",
      "type": "event"
    },
    {
      "stateMutability": "payable",
      "type": "fallback"
    },
    {
      "inputs": [],
      "name": "campaignCount",
      "outputs": [
        {
          "internalType": "uint256",
          "name": "",
          "type": "uint256"
        }
      ],
      "stateMutability": "view",
      "type": "function"
    },
    {
      "inputs": [
        {
          "internalType": "uint256",
          "name": "_id",
          "type": "uint256"
        }
      ],
      "name": "closeCampaign",
      "outputs": [],
      "stateMutability": "nonpayable",
      "type": "function"
    },
    {
      "inputs": [
        {
          "internalType": "uint256",
          "name": "_id",
          "type": "uint256"
        },
        {
          "internalType": "uint256",
          "name": "_amount",
          "type": "uint256"
        }
      ],
      "name": "contributeERC20",
      "outputs": [],
      "stateMutability": "nonpayable",
      "type": "function"
    },
    {
      "inputs": [
        {
          "internalType": "uint256",
          "name": "_id",
          "type": "uint256"
        }
      ],
      "name": "contributeNative",
      "outputs": [],
      "stateMutability": "payable",
      "type": "function"
    },
    {
      "inputs": [
        {
          "internalType": "uint256",
          "name": "_id",
          "type": "uint256"
        },
        {
          "internalType": "address",
          "name": "_user",
          "type": "address"
        }
      ],
      "name": "contributionERC20Of",
      "outputs": [
        {
          "internalType": "uint256",
          "name": "",
          "type": "uint256"
        }
      ],
      "stateMutability": "view",
      "type": "function"
    },
    {
      "inputs": [
        {
          "internalType": "uint256",
          "name": "_id",
          "type": "uint256"
        },
        {
          "internalType": "address",
          "name": "_user",
          "type": "address"
        }
      ],
      "name": "contributionNativeOf",
      "outputs": [
        {
          "internalType": "uint256",
          "name": "",
          "type": "uint256"
        }
      ],
      "stateMutability": "view",
      "type": "function"
    },
    {
      "inputs": [
        {
          "internalType": "uint256",
          "name": "",
          "type": "uint256"
        },
        {
          "internalType": "address",
          "name": "",
          "type": "address"
        },
        {
          "internalType": "address",
          "name": "",
          "type": "address"
        }
      ],
      "name": "contributionsERC20",
      "outputs": [
        {
          "internalType": "uint256",
          "name": "",
          "type": "uint256"
        }
      ],
      "stateMutability": "view",
      "type": "function"
    },
    {
      "inputs": [
        {
          "internalType": "uint256",
          "name": "",
          "type": "uint256"
        },
        {
          "internalType": "address",
          "name": "",
          "type": "address"
        }
      ],
      "name": "contributionsNative",
      "outputs": [
        {
          "internalType": "uint256",
          "name": "",
          "type": "uint256"
        }
      ],
      "stateMutability": "view",
      "type": "function"
    },
    {
      "inputs": [
        {
          "internalType": "uint256",
          "name": "",
          "type": "uint256"
        }
      ],
      "name": "contributorCount",
      "outputs": [
        {
          "internalType": "uint256",
          "name": "",
          "type": "uint256"
        }
      ],
      "stateMutability": "view",
      "type": "function"
    },
    {
      "inputs": [
        {
          "internalType": "string",
          "name": "_metadataCid",
          "type": "string"
        },
        {
          "internalType": "uint256",
          "name": "_goal",
          "type": "uint256"
        },
        {
          "internalType": "uint256",
          "name": "_durationSeconds",
          "type": "uint256"
        },
        {
          "internalType": "enum CrowdFundDirectMetadata.ContributionType",
          "name": "_ctype",
          "type": "uint8"
        },
        {
          "internalType": "address",
          "name": "_erc20Token",
          "type": "address"
        }
      ],
      "name": "createCampaign",
      "outputs": [
        {
          "internalType": "uint256",
          "name": "",
          "type": "uint256"
        }
      ],
      "stateMutability": "nonpayable",
      "type": "function"
    },
    {
      "inputs": [
        {
          "internalType": "uint256",
          "name": "_id",
          "type": "uint256"
        }
      ],
      "name": "getCampaign",
      "outputs": [
        {
          "internalType": "uint256",
          "name": "id",
          "type": "uint256"
        },
        {
          "internalType": "address",
          "name": "owner",
          "type": "address"
        },
        {
          "internalType": "string",
          "name": "metadataCid",
          "type": "string"
        },
        {
          "internalType": "uint256",
          "name": "goal",
          "type": "uint256"
        },
        {
          "internalType": "uint256",
          "name": "totalRaisedNative",
          "type": "uint256"
        },
        {
          "internalType": "uint256",
          "name": "deadline",
          "type": "uint256"
        },
        {
          "internalType": "bool",
          "name": "active",
          "type": "bool"
        },
        {
          "internalType": "enum CrowdFundDirectMetadata.ContributionType",
          "name": "contributionType",
          "type": "uint8"
        },
        {
          "internalType": "address",
          "name": "acceptedToken",
          "type": "address"
        },
        {
          "internalType": "uint256",
          "name": "contributors",
          "type": "uint256"
        }
      ],
      "stateMutability": "view",
      "type": "function"
    },
    {
      "inputs": [
        {
          "internalType": "uint256",
          "name": "_id",
          "type": "uint256"
        }
      ],
      "name": "totalRaisedERC20Of",
      "outputs": [
        {
          "internalType": "uint256",
          "name": "",
          "type": "uint256"
        }
      ],
      "stateMutability": "view",
      "type": "function"
    },
    {
      "stateMutability": "payable",
      "type": "receive"
    }
  ],
  "bytecode": "0x6080806040523461001b5760016000556111cb90816100218239f35b600080fdfe6080806040526004908136101561001d575b50503661115757611157565b60003560e01c9081630dc924b314610d81575080632a32c45a14610b615780632f8cea39146107a05780634f37ce71146107755780635414b94c146104285780635598f8cc146102c45780637274e30d146102a6578063871aac141461028c5780639252170c1461022a578063a75ce6c1146101e1578063b0e1c1e1146100fa5763c3a245cb146100ae5780610011565b346100f55760403660031901126100f5576100c7610de4565b9035600052600360205260406000209060018060a01b03166000526020526020604060002054604051908152f35b600080fd5b50346100f55760203660031901126100f557803590816000526002602052604060002061012981541515610ec9565b60018101546001600160a01b031633036101b0576007019081549060ff82161561017b575060ff191690557f5e6eb33a418de5dbbc17f989f7ae362cdfbb1748c5d603137c767027a354edbc600080a2005b60649060206040519162461bcd60e51b8352820152600e60248201526d105b1c9958591e4818db1bdcd95960921b6044820152fd5b60405162461bcd60e51b8152602081840152600a60248201526927b7363c9037bbb732b960b11b6044820152606490fd5b50346100f55760203660031901126100f5573560005260026020526005604060002060018060a01b03600782015460101c16600052016020526020604060002054604051908152f35b50346100f55760603660031901126100f557610244610de4565b6001600160a01b0360443581811693908490036100f5578035600052602052604060002091166000526020526040600020906000526020526020604060002054604051908152f35b50346100f55760403660031901126100f5576100c7610de4565b346100f55760003660031901126100f5576020600154604051908152f35b50346100f557602090816003193601126100f557803590816000526002835260406000208054926102f6841515610ec9565b60018060a01b03906001928284820154166002820160038301549683015491600760068501549401549460005260068a52604060002054968a6040519360009281549161034283610e82565b8088529282811690811561040657506001146103cc575b505050509061036e8361038a94930383610fec565b6040519a8b9a8b528a01526101408060408b0152890190610dfa565b956060880152608087015260a086015260ff8116151560c08601526103b860e0860160ff8360081c16610e3a565b60101c166101008401526101208301520390f35b6000908152838120939450925b8284106103f3575050508301018a8361038a61036e610359565b80548785018601529284019281016103d9565b60ff191685890152505050151560051b84010190508a8361038a61036e610359565b50346100f55760403660031901126100f557602480358235610448611064565b8060005260206002815260406000209361046485541515610ec9565b600785019460ff8654610478828216610f01565b60081c1660028110156107615760010361072a5761049b60068201544210610f3a565b6104a6851515610f6e565b600181019660018060a01b03926104c2848a5416331415610fa0565b8560005260058552604060002033600052855260ff60406000205416156106e9575b83885460101c16848a54169060405191878301906323b872dd60e01b8252338585015260448401528960648401526064835260a083019267ffffffffffffffff818510818611176106d55760e08201908111858210176106d5576040528884527f5361666545524332303a206c6f772d6c6576656c2063616c6c206661696c656460c082015251610588939291600091829182855af1610582611024565b916110ba565b80518681159182156106b5575b505090501561065f57509187600582937fa9c4489ab719bccd45d3e6fd972c819423ff4e1d3c749adee2261162c33afb6096958860005286526040600020848b5460101c166000528652604060002033600052865260406000206105fa8a8254610ebc565b9055838a5460101c166000520184526040600020610619888254610ebc565b90555416955460101c168095847fcccaadc644e32a81f06393f2eb1b0976974e068c967dbeae02d1c03caf9d78cb84604051898152a46040519384523393a46001600055005b60405162461bcd60e51b8152918201859052602a908201527f5361666545524332303a204552433230206f7065726174696f6e20646964206e6044820152691bdd081cdd58d8d9595960b21b6064820152608490fd5b83809293500103126100f55785015180151581036100f557808638610595565b85604188634e487b7160e01b600052526000fd5b856000526005855260406000203360005285526040600020600160ff19825416179055856000526006855260406000206107238154610e5d565b90556104e4565b60405162461bcd60e51b815280880184905260118184015270115490cc8c081b9bdd08185b1b1bddd959607a1b6044820152606490fd5b82602189634e487b7160e01b600052526000fd5b50346100f55760203660031901126100f5573560005260066020526020604060002054604051908152f35b50346100f55760a03660031901126100f55767ffffffffffffffff808235116100f55736602383350112156100f5578135820135116100f5573681358083013501602401116100f557600260643510156100f5576084356001600160a01b038116908190036100f557813582013515610b295760243515610af257610e1060443510610ab857600160643514610a72575b5061083d600154610e5d565b80600155806000526002602052604060002081815560018101336bffffffffffffffffffffffff60a01b82541617905561087a6002820154610e82565b92601f8411610a23575b602093506000601f82358301351160011461099f576000908235830135610990575b50813582013560011b91600019908035013560031b1c19161760028201555b602435600382015560076108db60443542610ebc565b9182600682015501805461ff0060643560081b169060018261ffff19831617178355600160643514610967575b505060018060a01b03905460101c166040519160243583528483015261093360408301606435610e3a565b6060820152817feacc0978a224a922ca7763bd38b6bd56e2d552ed05f3a57a3123fdfde6a2da3660803393a3604051908152f35b6001600160b01b0319161760843560101b62010000600160b01b03161760011781553880610908565b602491508235010135386108a6565b929190601f198135820135169360028301600052856000209060005b868110610a08575060019394958335840135116109e6575b505080350135811b0160028201556108c5565b602460001960f8853586013560031b161c1991843501013516905538806109d3565b909187600181926024868835010135815501930191016109bb565b600282016000526020600020601f82358301350160051c81016020833584013510610a6b575b601f860160051c82018110610a5f575050610884565b60008155600101610a49565b5080610a49565b15610a7d5738610831565b60649060206040519162461bcd60e51b83528201526014602482015273115490cc8c081d1bdad95b881c995c5d5a5c995960621b6044820152fd5b60405162461bcd60e51b8152602081840152601360248201527226b4b710323ab930ba34b7b71018903437bab960691b6044820152606490fd5b60405162461bcd60e51b8152602081840152601060248201526f0476f616c206d757374206265203e20360841b6044820152606490fd5b60405162461bcd60e51b8152602081840152601160248201527013595d1859185d18481c995c5d5a5c9959607a1b6044820152606490fd5b50602090816003193601126100f557803590610b7b611064565b8160005260028352604060002090610b9582541515610ec9565b60ff6007830154610ba7828216610f01565b60081c166002811015610d6c57610d3357610bc760068301544210610f3a565b610bd2341515610f6e565b60018201908060018060a01b0393610bef85855416331415610fa0565b8560005260058752604060002033600052875260ff6040600020541615610cf2575b856000526003875260406000203360005287526040600020610c34348254610ebc565b905501610c42348254610ebc565b9055600080808034878754165af1610c58611024565b5015610cbd57505416817f098444c3107fd247a05a11369c70a2f7b029f3db0e32d9fc8083aff4c7fa388784604051348152a37f4bdb6deea21c158896c1f4f30d8697857bffd15357ff0655af73bb42f9fb4fe5604051923484523393a36001600055005b60405162461bcd60e51b8152908101859052600e60248201526d119bdc9dd85c990819985a5b195960921b6044820152606490fd5b856000526005875260406000203360005287526040600020600160ff1982541617905585600052600687526040600020610d2c8154610e5d565b9055610c11565b60405162461bcd60e51b8152908101849052601260248201527113985d1a5d99481b9bdd08185b1b1bddd95960721b6044820152606490fd5b602182634e487b7160e01b6000525260246000fd5b9050346100f55760403660031901126100f5576020916007610da1610de4565b91803560005260028552604060002090855260406000209060018060a01b03928391015460101c1660005284526040600020911660005282526040600020548152f35b602435906001600160a01b03821682036100f557565b919082519283825260005b848110610e26575050826000602080949584010152601f8019910116010190565b602081830181015184830182015201610e05565b906002821015610e475752565b634e487b7160e01b600052602160045260246000fd5b6000198114610e6c5760010190565b634e487b7160e01b600052601160045260246000fd5b90600182811c92168015610eb2575b6020831014610e9c57565b634e487b7160e01b600052602260045260246000fd5b91607f1691610e91565b91908201809211610e6c57565b15610ed057565b60405162461bcd60e51b8152602060048201526009602482015268139bdd08199bdd5b9960ba1b6044820152606490fd5b15610f0857565b60405162461bcd60e51b815260206004820152600a6024820152694e6f742061637469766560b01b6044820152606490fd5b15610f4157565b60405162461bcd60e51b8152602060048201526005602482015264115b99195960da1b6044820152606490fd5b15610f7557565b606460405162461bcd60e51b81526020600482015260046024820152635a65726f60e01b6044820152fd5b15610fa757565b60405162461bcd60e51b815260206004820152601760248201527f4f776e65722063616e6e6f7420636f6e747269627574650000000000000000006044820152606490fd5b90601f8019910116810190811067ffffffffffffffff82111761100e57604052565b634e487b7160e01b600052604160045260246000fd5b3d1561105f573d9067ffffffffffffffff821161100e5760405191611053601f8201601f191660200184610fec565b82523d6000602084013e565b606090565b600260005414611075576002600055565b60405162461bcd60e51b815260206004820152601f60248201527f5265656e7472616e637947756172643a207265656e7472616e742063616c6c006044820152606490fd5b9192901561111c57508151156110ce575090565b3b156110d75790565b60405162461bcd60e51b815260206004820152601d60248201527f416464726573733a2063616c6c20746f206e6f6e2d636f6e74726163740000006044820152606490fd5b82519091501561112f5750805190602001fd5b60405162461bcd60e51b815260206004820152908190611153906024830190610dfa565b0390fd5b60405162461bcd60e51b815260206004820152601660248201527555736520636f6e747269627574654e6174697665282960501b6044820152606490fdfea26469706673582212202ebf9747dd5a188b3a52046243258228200ebc8953f99fa4cc1e2595ab70450b64736f6c63430008130033",
  "linkReferences": {},
  "deployedLinkReferences": {}
}